:400000000080002011000000B5020000B502000008B5044B1A6803F53F5302331A6000F051F900BFFA46004010B5054C237833B9044B13B10448AFF300800123237010BDBF
:400040003081FF1F0000000018040000084B10B51BB108490848AFF300800848036803B910BD074B002BFBD0BDE81040184700BF000000003481FF1F18040000C880FF1FFA
:400080000000000062B6FEE7FEE700BFF0B40022174611E050F82760F3B226F0FF0608E001EB420511F812406D78A5550132013BDBB2002BF4D10137252FEBD9F0BC704708
:4000C000064B1B78DBB203F00701054A11701B09013213704422034B1A707047CF0100496E5800407658004008B50A46002100F08AF908BD38B50B22244B1A8018220233D0
:400100001A70022203F27E231A7008224FF040231A70032103F5007319701D4B1B78DBB21C490B701C4B1A8041F25122023B1A80002419250CE0194B1B7803F0010343EA34
:40014000440404F003044FF4F07000F015F9013D0DB1032CEFD115B90320FFF795FF104B4FF480721A8007221A7000220D490A704820023108701A700222033B1A700A4A89
:40018000137843F00103137038BD00BF8040004008010049A146004022420040254200400440004006400040A243004008B500F01FF908BD38B572B62D4A137843F0040378
:4001C000137000240CE02B4D630019194A0011462A44084691882858FFF786FF0134E4B2072CF0D924494FF09040FFF74FFF234A137843F0020313701032137843F00203AF
:4002000013701F4C237843F040032370A2F58632513A137843F010031370082219491A48FFF7C4FF082219491948FFF7BFFF082218491948FFF7BAFF082218491848FFF73A
:40024000B5FF184A137843F008031370164D61232B70FFF74FFF81232B700122134B1A70FFF72EFF0E2221461148FFF79FFF38BDE84600401C04000098000048035001406E
:40028000A0430040340F0048025100403C0F0048F2510040440F0048125100404C0F004822510040224300400048004004000840B043004008B500F06FF803680C2B00D120
:4002C000FEE7FEE708B5104E104D16E029686B68AC68002204E051F8040B43F8040B0432A242F8D1E868002203E0002143F8041B04328242F9D11035013E002EE6D100F0D6
:4003000051F8FFF7BFFEFEE7010000007404000008B5104A104B1A60104A136843F40073136000230AE0032B03D80D4A52F8231000E00C490C4A42F8231001332F2BF2D94A
:400340000A4B1A780A4B1A70074A0A4B1A60FFF731FF08BD0004FA050CED00E014ED00E000000000B50200000080FF1FBC760040C080FF1F08ED00E00230800803D000BFA9
:4003800001380046FCD17047EFF3108072B6704780F31088704700BF014B1868704700BF2C81FF1F0E4B70B51E460E4C0025E41AA410A54204D056F8253098470135F8E7F6
:4003C00000F046F8084B094C1E46E41AA4100025A54204D056F8253098470135F8E770BD5C0400005C0400005C0400006404000010B5431E0A44914204D011F8014B03F87A
:40040000014FF8E710BD03460244934202D003F8011BFAE77047000000000000004F00403000305100404000C0510040100000000140001000140140000800400140000A81
:40044000004C0140000200500140200043000000F8B500BFF8BC08BC9E4670474D00000011030000F8B500BFF8BC08BC9E4670472900000088040000C880FF1F6800000017
:4004800020000000000000000000000000000000000000000000000000000000000000000000000000000000000000004C04000000000000000000000000000000000000CC
:4004C0000000000000000000000000000000000000000000000000000000000000000000000000000000000000000000CC80FF1F0000000000000000000000000000000092
:4005000000000000000000000000000000000000000000000000000000000000000000000000000000000000000000000000000000000000000000000000000000000000BB
:40054000000000000000000000000000000000000000000000000000000000000000000000000000000000000000000000000000000000000000000000000000000000007B
:40058000000000000000000000000000000000000000000000000000000000000000000000000000000000000000000000000000000000000000000000000000000000003B
:4005C00000000000000000000000000000000000000000000000000000000000000000000000000000000000000000000000000000000000000000000000000000000000FB
:020000040003F7
:0200000480007A
:40000000044F0040075200404F000140320101404202014045030140470401404C0501404D060140530701405508014052090140500A0140450B0140450C0140390D0140B6
:40004000510E01402E0F014052140140521501404B1601404C170140421801404D1901404A1A01404E1B0140014001400F4101400A420140094301400745014007460140F4
:40008000054701400B48014009490140174C0140044D0140085001400A36161B224B2E36006A014308C00994101311067902000901010212030205020619070C080909023A
:4000C0000B080C090E120F1E1102120914091502171C180919021B1C1C091F0221022209231C240925012612271628092A122B1E2C042D022E132F1C301131083201331057
:4001000034033504360C37033AE23B283E043F41580459045F018201860188018E01920193079601970198019B059E01A201A307A401A801AE01B101B201B304B502BAC08C
:40014000BB2ABE04D804D904DC08DF31002402020380040805910A6A0E120F84100112281301142016801760180419201A401B871C021F0820202114229023502490250905
:40018000262A29242B812F8031083261340136283882392841104208444045017F408801C0FFC2FFC4FFCA8FCCEFCE0FDE80E28002050502060508010A040D040E051102C5
:4001C0001205160518021D041E05200125012601280129012E053301340435023603370438083BFC3E50580459045F0180018104830185018601880189018D028E019001ED
:400200009101940195019704980199019C019D01A101A201A401A501A801AB01AC01AF01B001B103B704BB0CBE01BF41D804D904DC80DF21001403820408059109010A2A82
:400240000D020E1A1180122013111520166017401A401D8C1E281F0421012248242225402724284029202A082B012F283225338035023680381039083B413C083E407B10C1
:4002800083208A088E048F049014910892209350940A969A9785984099209A089C219D959E809F60A101A2A0A38FA601A740C0FFC2FFC4FFCA6FCC9FCE5FDE02E6900110CA
:4002C00002010601071D08010C010F05120113051601170118011D081E01200126012A012B022C01300131103304350837033BAA3E01580459045F0180028317840185059A
:40030000860288018A028B078C028D088F0592029317960297179A029B179E029F05A105A202A308A402A504A712AA02AB17AE02AF07B103B304B403B511B708BA03BB22AF
:40034000BE10BF44D824D904DC08DF21000401010201030404200584074009220A010B200E661010128213201510178A19021C801F2021102205230D2418251027422B04E2
:400380002C802E042F05318032053615374039023B483D303E013F847D088480854086408C2090209102934894089520961A978599049B049C209D939EE09F40A1C0A304CC
:4003C000A404A502A601A760AC01AD08B210B710C0FFC2FFC4FFCAF4CCFBCEFBDE40E002E208E8100218040106F0070908180B080C040EF0100212F0131016D818081AE0FD
:400400001E581F092018250426182A582B0F2E183050310232303318340F3501369037043ABA3BAA580459045F018207831F8603871D8A018B0F8E038F1F90019109920236
:4004400093029601970999099A0F9D099E0FA001A101A316A401A602A71FA801AA02AB1FAC01AF1FB003B104B318B404B502B608B701BAA2BB0ABF50D804D904DF01002068
:400480000210038204800505070808880B880E260F801040110412081340151016601740180619A01A011BC11D111E761F0120102203230624C0253B268027A0281029A27C
:4004C0002A012B102F243128328136803702389039033A803B283D203F0480828105841088408B408E0891109308940495019655972299049A609B4C9C109D919E819FA07E
:40050000A404A526A697AA20AB40AC40AF40B304B410C0FFC2FFC4FFCA6FCC9FCE6FE208E401EA04001001010207030E0441070208410A060B0A0D010E410F021102124163
:40054000130C1441170218411A061B0A1C081D021E071F082041210225022641270C29022A452C202E072F0E30053203330834783504360137033A3A3B283E403F405804F9
:4005800059045F01810182118501861188088A018C018E108F049110921194019610970698049C029F06A211A316A401A608A801AA10AE11AF08B007B101B208B30CB4103A
:4005C000B510B702BBABBE15D804D904DF0101A0020403A005120602072008900AA40D200E900F0212A213101401151817021A041B0A1CA01D501E801F10200221542229AC
:400600002346252426102721284029402C092E022F1430083342350236503708380839823C203D183F827D047E10820186088B068D0490089210931895059622972798C06C
:4006400099A19B489C109E029F01A108A282A345A451A504A619A7A8AB02B320B710C0FFC2FFC4FFCAF9CCFBCEFBE2A0E640E810EC200202030904020509060409040A0240
:400680000B130E020F0910021309140215091604171219091A061B121C011E021F0B220223092606270B28012A062B092D092E022F023103330C34033501360437113A808B
:4006C0003B8E3E103F10580459045F01810183088501860687048B058F05930595089608970199019A049B049D02A001A305A501A606A704A901AA07AF05B00CB104B20153
:40070000B402B508B602B703BAAABF51D804D904DF01018003A8072009080A4A0E080F2011151202142015101702180819801E181F462008210822822310274A29A02BA09D
:400740002E022F153108329236193740388039113A043B043CA23D084801494060806101830187408A848E04908091109240972A986099219C109D409E069F01A345A454FE
:40078000A504A619B040B111B311C02FC26FC47FCAFFCCFFCEFFE003E240E880000103010501060108010B010E010F01120113011401170119011A011C011D0120012101DD
:4007C00025012601280129012C012F01320135013E043F10580459045F0183028602870E881089028C088D0291029201930C97029A059B029D029F04A205A30EA408A5027A
:40080000A901AA01AB02AC10AD01AF0EB006B103B210B304B403B608B708BAEEBB88BF01D804D904DF01001803010460050A08100A400D080E040F41104012061308140233
:400840001528170218A019211A401BC41C102002224223122708290A2B052F95326535403619384039083B113CA03D083E025C025D018C2090409128920E934196809710D7
:40088000990A9C40A108A220A401C0F7C2FAC4FFCAFFCCFFCEFFE040000C010202100308060C0702080C09020A100B090E0C0F0B100C1210131F140C1601170F1801190229
:4008C0001A0C1C021D021E181F09200C2210231D240C270A29022A1C2E1C2F02300631063218331234013508360837013A0B3BAA3E50580459045F0181018204830887017C
:4009000089018B088E0A8F099101920293089602970999019B089D049E0BA101A308A401A709A901AD02B00CB201B406B507B708BA2ABF50D804D904DF010060010A04024E
:400940000701084009080A840C400D080E401228134117081802190A1A081C441D081E441F0A21142229234326802709290A2B0A2D0A2F0A3101326836A8370238043B517E
:400980003C223E043F5064406501C09FC2BFC42FCAFFCCFFCEFF00100203030106410701080409010A030C800D010E0310401202130116411701184119011C411F0120415C
:4009C000230124082501260329012A412C202E032F0130FC310134033A233F01580459045F01821F83028502861F8704880589028A188B048E1F8F06910292059502961DEF
:400A0000980499019A1A9B029C059E089F06A205A302A61FA706A805A901AB06AE05AF02B00CB203B303B404B504B610BA8ABB20BE10BF04D804D904DF0101110212044AFE
:400A400006040708080409100A420C200D020E121008110412811620176119021A481B101D0A1E121F5B208025042610270829202A052B022C202D102F4532203349358057
:400A800036203709382639053B803C463E104C084E04801081208610874089088C248F41906E9202930896589720980499809A319B619D029F08A001A110A2A2A460A5065B
:400AC000A601A710AC02C0FFC2FFC4FFCAFFCCFFCEFFE00CE408E605E821EA08EE0402110510061108040D100E11121113011611170118011A101B051C011E1020022401A4
:400B00002610270228012A082B0D2C082D082E0130073103330834103510360837063BBA3E51580459045F018001830685018601870689028A018E018F069001910294044A
:400B40009501960197029A019B029C019D02A201A302A402A702A801AA04AB06AD02AE01B104B204B403B503BB02BE14BF10D804D904DF0100140180028004860510062190
:400B8000080409080A4A0C200D020E1211221202130417691A201B201C021D101F0220082101220224202628276129222A802B102F1632913304351036083701389A3A10DC
:400BC0003B083C803D084101428086208B0190D69202930C950299A09B049D02A119A280A406A730A840AA04AC08AD04AE10AF03B102B340B401C0FFC2FFC4FFCA7FCCEF6A
:400C0000CE5FE208E402EA0AEC08EE020211061908010A180C010E18120616031A111B011E11220F26192A192E01301031013205340936033AA83B0E3E01580459045C80A8
:400C40005F018201830186078701880189018A168C018D018E069203930194019501961E99019A079E1F9F01A217A301A401A701AA01AB01AD01AE01B005B101B208B411B2
:400C8000B603BAAABB0CBF01D804D904DC80DF01018003A804820524084009080A800B040C100D020E1912A5144A151416101AA01BA81C041D021E1A210123102420276004
:400CC00029812A012B243108329234023601372139213A043B4079807C807D017E4085048720882089208F4091209340950396A09701984899819A14A108A2A2A7A0AB44C5
:400D0000AC50AE02AF10B001B120B210B408B502B701C0FFC2FFC4FFCA0FCC2FCE0FDE18E002E422E844EC24EE80021803010404067007030A380B0F0E18101812201618AD
:400D400018181A601B071F0F20012270263828022A702E18304031023304340F3508363037013AB23BAA580459045C805F018102822E8510862E880589028A028C0C8E3228
:400D80008F02922E93029508960E980E9A309B029C029D049E0CA001A101A23AA63EA702A802A902AA3CAD02AE0EB218B407B51FB628BAA8BB30BF04D804D904DF010021C3
:400DC00002100301048605100A540C020E161051111014491610188319201A441C201D141E0121252301251026242C642F02312033403428358037023820390A3D243E8079
:400E00003F0258015A0178808224830284048701881289018A808C208D908F02902491149210948295089601970198D89A109B419D34A020A201A520A950AE02AF54B0805A
:400E4000B784C0FFC2FEC4FFCAF0CCFCCEF7DE08E050E460E610E820EC02891051085620580459805C015D10660480018A208E049110D4E0D6E0D880E28013121744611024
:400E80009C049D809F40A508B740C4F0D84065109B069C049D90AD08AF10D880E810EA40500455085B805E015F40D407D605838084019408960197409F80A5089408960184
:400EC00097409801A50853016510711085809B069C049D90D480D880DC20E21081109D10AB05AC04B302E620E880EA10EE205A025B10611064016608850886018A018C047B
:400F0000940896019740980199109B10A508A910AB10D401D603D803E008E4018B409740AE08E004000108010A010C010E0110011A011C01007F7F007F000000000202000C
:400F40000200000000FFFF00F4000000001F1F001F000000000000000000000000000000000000000000000000000000000000000000000000000000000000000000000020
:400F80000000000000000000000000000000000000000000000000000000000000000000000000000000000000000000000000000000000000000000000000000000000031
:400FC00000000000000000000000000000000000000000000000000000000000000000000000000000000000000000000000000000000000000000000000000000000000F1
:4010000000000000000000000000000000000000000000000000000000000000000000000000000000000000000000000000000000000000000000000000000000000000B0
:401040000000000000000000000000000000000000000000000000000000000000000000000000000000000000000000000000000000000000000000000000000000000070
:0200000490006A
:0400000000004005B7
:0200000490105A
:04000000BC90ACAF55
:0200000490303A
:0200000079FE87
:0200000490402A
:4000000000000000000000000000000000000000000000000000000000000000000000000000000000000000000000000000000000000000000000000000000000000000C0
:400040000000000000000000000000000000000000000000000000000000000000000000000000000000000000000000000000000000000000000000000000000000000080
:400080000000000000000000000000000000000000000000000000000000000000000000000000000000000000000000000000000000000000000000000000000000000040
:4000C0000000000000000000000000000000000000000000000000000000000000000000000000000000000000000000000000000000000000000000000000000000000000
:0200000490501A
:0C00000000012E16106900012E1B8A67FB
:00000001FF